:100000000A128A110C280134FE00030EF0000A08BF
:10001000F1000A168A11582D0A128A110F2883132B
:10002000C230FD001430FE006830FF00A0308400B4
:100030000A168A112D240A128A116D30FD0007302C
:10004000FE00FD30FF006A3084000A168A112D245C
:100050000A128A110A128A1103200A128A11FB005D
:1000600083160313C201C301C401C501C601C70140
:10007000C801C901CA01CB0183120313E301E401E2
:10008000E501E601E701E801E901F901FA0183016F
:100090000A128A15DE2A83120313DE000A168A1159
:1000A000A2260A128A113330831203136B06031D32
:1000B0005A285B28262A0A168A1118240A128A113D
:1000C0003F3083120313A0009130A1008030A200C2
:1000D0000A168A1125250A128A117A088312031337
:1000E000D8005807A03E840083130008A000840AAB
:1000F00000088403A1008630A2000A168A11252573
:100100000A128A11393083120313A0009130A10022
:10011000C030A2000A168A1125250A128A11C6309B
:10012000F8000A30F2000030F3008312031367086E
:10013000D800D9015808F4005908F5000A168A11A8
:1001400000270A128A117208303E0A168A113C24CE
:100150000A128A11C730F8000A30F2000030F300AA
:10016000831203136708D800D9015808F40059080E
:10017000F5000A168A114B260A128A117208303EBF
:100180000A168A113C240A128A11C830F8003A3043
:100190000A168A113C240A128A11C930F8000A3062
:1001A000F2000030F300831203136808D800D9016D
:1001B0005808F4005908F5000A168A1100270A1297
:1001C0008A117208303E0A168A113C240A128A11DA
:1001D000CA30F8000A30F2000030F3008312031333
:1001E0006808D800D9015808F4005908F5000A1623
:1001F0008A114B260A128A117208303E0A168A1199
:100200003C240A128A11FF3083120313EB003330AF
:1002100083120313DA00BB30D900DF30D800D80BCB
:100220000F29D90B0F29DA0B0F290A168A11182466
:100230000A128A11023083120313A0009130A10028
:100240008030A2000A168A1125250A128A11573019
:1002500083120313A0009130A100C030A2000A163F
:100260008A1125250A128A11123083120313A00065
:100270009030A1009030A2000A168A1125250A129A
:100280008A11831203136708D800D9015808F200B5
:100290005908F3003C30F4000030F5000A168A11CA
:1002A000AE240A128A118312031368087207E3004E
:1002B0000030031801307307E4006408E6006308A7
:1002C000E5006508F2006608F3000030F31BFF301C
:1002D000F400F50001300A128A1521210A128A1150
:1002E000750883120313B1007408B0007308AF00DF
:1002F0007208AE003E30AD00EB30AC008530AB0094
:100300001F30AA000A128A112B240A128A118312A2
:1003100003132D08C7002C08C6002B08C5002A08A7
:10032000C4000A128A116D270A128A11831203135C
:10033000450883160313CB00831203134408831666
:100340000313CA00831203136508F2006608F30062
:10035000F401F50100300A128A1521210A128A11CE
:10036000750883120313B1007408B0007308AF005E
:100370007208AE003D30AD00F530AC00C230AB00CD
:100380008F30AA000A128A112B240A128A118312B2
:1003900003132D08C7002C08C6002B08C5002A0827
:1003A000C4000A128A116D270A128A1183120313DC
:1003B000450883160313C9008312031344088316E8
:1003C0000313C800831203136508F2006608F300E4
:1003D000F401F50100300A128A1521210A128A114E
:1003E000750883120313B1007408B0007308AF00DE
:1003F0007208AE003E30AD00D730AC000A30AB0022
:100400003D30AA000A128A112B240A128A11831283
:1004100003132D08C7002C08C6002B08C5002A08A6
:10042000C4000A128A116D270A128A11831203135B
:10043000450883160313C700831203134408831669
:100440000313C60083120313121507151F305E062F
:10045000031D2B2A2C2A302A121107114430EC00DC
:100460006708D800D9015808F2005908F3003C3059
:10047000F4000030F5000A168A11AE240A128A111F
:100480008312031368087207E50000300318013077
:100490007307E60008307A0203184F2A502ABF2A51
:1004A000831603134A08831203136302D8008316CA
:1004B00003134B08031C4B0A831203136402D90075
:1004C00059086602031D662A58086502031C692A3A
:1004D0006A2A762A6130A0009130A1008A30A200F9
:1004E0000A168A1125250A128A116F2B8316031307
:1004F0004A0983120313D800831603134B0983128E
:100500000313D900D80A0319D90A8316031346081E
:10051000831203135802DA00831603134708031CDF
:10052000470A831203135902DB0063085A07DC00F1
:1005300064080318640A5B07DD005D086602031D9A
:10054000A32A5C086502031CA62AA72AB32A453001
:10055000A0009130A1008A30A2000A168A11252538
:100560000A128A116F2B3330A0009130A1008A301B
:10057000A2000A168A1125250A128A116F2B08304B
:100580007A06031DC42AC52A522B6508F2006608A4
:10059000F300F401F50100300A128A1521210A1234
:1005A0008A11750883120313CF007408CE007308F4
:1005B000CD007208CC006308F2006408F300F40177
:1005C000F50100300A128A1521210A128A117508D4
:1005D00083120313CB007408CA007308C9007208A1
:1005E000C8006308F2006408F300F401F50100306C
:1005F0000A128A1521210A128A117508831203131F
:10060000B1007408B0007308AF007208AE003E304D
:10061000AD00CC30AC00CC30AB00CD30AA000A121B
:100620008A112B240A128A11831203132D08C70082
:100630002C08C6002B08C5002A08C4000A168A1117
:100640008A240A128A11831203134708D30046082A
:10065000D2004508D1004408D0000A128A157D2036
:100660000A128A11031C352B362B442B453083127A
:100670000313A0009130A1008A30A2000A168A114B
:1006800025250A128A116F2B333083120313A00021
:100690009130A1008A30A2000A168A1125250A127B
:1006A0008A116F2B09307A06031D572B582B642BA8
:1006B0003330A0009130A1008A30A2000A168A11BE
:1006C00025250A128A116F2BBF30A0009030A1009F
:1006D0008A30A2000A168A1125250A128A11C6300C
:1006E000F8000A30F2000030F300831203136708A9
:1006F000D800D9015808F4005908F5000A168A11E3
:1007000000270A128A117208303E0A168A113C2408
:100710000A128A11C730F8000A30F2000030F300E4
:10072000831203136708D800D9015808F400590848
:10073000F5000A168A114B260A128A117208303EF9
:100740000A168A113C240A128A11C830F8003A307D
:100750000A168A113C240A128A11C930F8000A309C
:10076000F2000030F300831203136808D800D901A7
:100770005808F4005908F5000A168A1100270A12D1
:100780008A117208303E0A168A113C240A128A1114
:10079000CA30F8000A30F2000030F300831203136D
:1007A0006808D800D9015808F4005908F5000A165D
:1007B0008A114B260A128A117208303E0A168A11D3
:1007C0003C240A128A11831203136708031DE92BC4
:1007D000EA2B2A2C6808031DEE2BEF2B2A2C0A1675
:1007E0008A1118240A128A1183120313071187141D
:1007F0002230A0009030A1008030A2000A168A1199
:1008000025250A128A11523083120313A00090305A
:10081000A100C030A2000A168A1125250A128A11E9
:10082000333083120313DA00BB30D900DF30D80035
:10083000D80B182CD90B182CDA0B182C8312031395
:1008400087100130EC001130EB000A168A111824D1
:100850000A128A110800831203132D08B700803092
:10086000B7052D08B2003207BD00AC1F382C392C5B
:100870003A2C3D143D0803193E2C3F2C4E2C3D0ACA
:10088000031D432C442C4C2C0030AD000030AC0038
:100890000030AB000030AA00AC17562C0030AD0081
:1008A0000030AC000030AB000030AA0031088039C5
:1008B000B7063108B2003207B800B01F602C612CB7
:1008C000622C381438080319662C672C762C380AE9
:1008D000031D6B2C6C2C742C0030B1000030B00068
:1008E0000030AF000030AE00B0177E2C0030B100F9
:1008F0000030B0000030AF000030AE0038080319FF
:10090000822C832C882C3D08031D872C882C912C4D
:100910000030AD000030AC000030AB000030AA0069
:100920006C2F2A08F20030080A168A11FC240A12D9
:100930008A11730883120313C3007208C2004208AD
:10094000B200B301B401B5013508BC003408BB00E6
:100950003308BA003208B9004308B200B301B40149
:10096000B5013508C1003408C0003308BF003208A3
:10097000BE002B08F2002F080A168A11FC240A1266
:100980008A11730883120313C3007208C20042085D
:10099000B200B301B401B5013208B907330803113D
:1009A0000318013E0319D52CBA07340803110318A4
:1009B000013E0319DC2CBB07350803110318013E67
:1009C0000319E32CBC074308B200B301B401B5011D
:1009D0003208BE07330803110318013E0319F12C36
:1009E000BF07340803110318013E0319F82CC00790
:1009F000350803110318013E0319FF2CC1072C0809
:100A0000F2002E080A168A11FC240A128A117308B1
:100A100083120313C3007208C2004208B200B3017C
:100A2000B401B5013208B907330803110318013EB8
:100A300003191B2DBA07340803110318013E0319CB
:100A4000222DBB07350803110318013E0319292D78
:100A5000BC074308B200B301B401B5013208BE07B8
:100A6000330803110318013E0319372DBF0734085B
:100A700003110318013E03193E2DC0073508031169
:100A80000318013E0319452DC1070830B2000310B9
:100A9000B90DBA0DBB0DBC0DB20B472D2B08F200E2
:100AA0002E080A168A11FC240A128A11730883126E
:100AB0000313C3007208C2004208B2004308B30027
:100AC000B401B5013208B907330803110318013E18
:100AD00003196B2DBA07340803110318013E0319DB
:100AE000722DBB07350803110318013E0319792D38
:100AF000BC072A08F2002F080A168A11FC240A12E1
:100B00008A11730883120313C3007208C2004208DB
:100B1000B2004308B300B401B5013208B907330885
:100B200003110318013E0319962DBA073408031167
:100B30000318013E03199D2DBB0735080311031847
:100B4000013E0319A42DBC070830B2000310B90DF3
:100B5000BA0DBB0DBC0DB20BA62D2A08F2002E0853
:100B60000A168A11FC240A128A11730883120313CD
:100B7000C3007208C2004208B2004308B300B401C7
:100B8000B5013208B907330803110318013E0319F0
:100B9000CA2DBA07340803110318013E0319D12DD9
:100BA000BB07350803110318013E0319D82DBC07F4
:100BB0002B08F20030080A168A11FC240A128A1146
:100BC000730883120313C3007208C2004208B20004
:100BD0004308B300B401B5013208BE07330803115E
:100BE0000318013E0319F52DBF073408031103183C
:100BF000013E0319FC2DC007350803110318013EFF
:100C00000319032EC1072C08F2002F080A168A11B7
:100C1000FC240A128A11730883120313C30072089A
:100C2000C2004208B2004308B300B401B501320863
:100C3000BE07330803110318013E0319202EBF0716
:100C4000340803110318013E0319272EC007350885
:100C500003110318013E03192E2EC1072C08F200C0
:100C600030080A168A11FC240A128A1173088312AA
:100C70000313C3007208C2004208B2004308B30065
:100C8000B401B50108300310B20DB30DB40DB50DAC
:100C9000FF3E031D432E3208BE073308031103181D
:100CA000013E0319542EBF07340803110318013EF7
:100CB00003195B2EC007350803110318013E031901
:100CC000622EC1073908B2003A08B3003B08B400ED
:100CD0003C08B50018300310B50CB40CB30CB20CC2
:100CE000FF3E031D6B2E3208BE07330803110318A5
:100CF000013E03197C2EBF07340803110318013E7F
:100D00000319832EC007350803110318013E031988
:100D10008A2EC1070830B2000310B90DBA0DBB0D01
:100D2000BC0DB20B8C2E3D083807B200B301B30DD9
:100D30003208823EC20033080318013EFF3EC30062
:100D4000BE2E0130B2000310BE0DBF0DC00DC10D8F
:100D5000B20BA32EBC1FAD2EAE2EAF2E3E14013013
:100D6000B2000310B90DBA0DBB0DBC0DB20BB12E04
:100D7000FF30C2070318C30AFF30C307C01FC12ECC
:100D8000C22EA12EB801BC1FC62EC72EE32EFF30E7
:100D90003905B200FF303A05B300FF303B05B4001F
:100DA0007F303C05B50035083404330432040319A0
:100DB000DA2EDB2EDE2E0130B800E32E3E1CE12EB3
:100DC000E22EE32EDB2E38080319E72EE82E192F2A
:100DD0000130BE07003003180130BF070030031890
:100DE0000130C007003003180130C107411CF92E43
:100DF000FA2E192F3E08B2003F08B3004008B40095
:100E00004108B5000130B600350DB50CB40CB30C7B
:100E1000B20CB60B042F3508C1003408C0003308EB
:100E2000BF003208BE000130C2070318C30A0030F9
:100E3000C3074308803AFF0080307F02031D222F42
:100E4000FF304202031C252F262F312F7F308312C3
:100E50000313C1008030C0000030BF000030BE006E
:100E6000622F831203134308803AFF0080307F0211
:100E7000031D3C2F0130420203183F2F402F4C2FFF
:100E8000003083120313C1000030C0000030BF00E7
:100E90000030BE00B701622F831203134208BD0069
:100EA000FF30BE05FF30BF057F30C0050030C105F3
:100EB0003D1C5B2F5C2F5D2FC0173D08B200031057
:100EC000320CC1003708C1044108AD004008AC0035
:100ED0003F08AB003E08AA0008000310831203136A
:100EE000460D470DF7007708031D772F782F812FC8
:100EF0000030C7000030C6000030C5000030C4001C
:100F0000E22F4408C8004508C9004608CA0047083F
:100F1000CB001F300310CB0CCA0CC90CC80CFF3E11
:100F2000031D8A2F4808F600C617FF30C405FF309E
:100F3000C505FF30C6050030C7059630F702F71F1C
:100F4000A22FA32FBB2F7708803A973E0318A92F13
:100F5000AA2FAB2F782F01300310C70CC60CC50C7D
:100F6000C40CFF3E031DAC2F0130F707031DB92F42
:100F7000BA2FAB2FD22F20307702031CC02FC12FE6
:100F8000CD2F782F0130C8000310C40DC50DC60D3C
:100F9000C70DC80BC42F0130F7027708031DD12FEE
:100FA000D22FC22F76080319D62FD72FE22FC409CC
:100FB000C509C609C709C40A0319C50A0319C60A1F
:100FC0000319C70A08000A128A1502200A128A1198
:100FD0000A168A1109240A128A110A168A110F2484
:100FE0000A128A118B170B17831603138710071128
:100FF00083120313871007110800013411340134E0
:101004000F30831603138805091189100A168A11F3
:10101400F5250A128A15080083120313A80128086B
:10102400803EF800FF300A168A113C240A128A1501
:10103400033083120313A7008A30A6005530A5009D
:10104400A50B2228A60B2228A70B222801308312E5
:101054000313A80710302802031C31283228112852
:101064006E30A0009030A100C330A2000A168A118D
:1010740025250A128A15423083120313A0009030EA
:10108400A1009130A2000A168A1125250A128A1598
:1010940083120313A9012908D03EF800FF300A1671
:1010A4008A113C240A128A15033083120313A70001
:1010B4008A30A6005530A500A50B5E28A60B5E2835
:1010C400A70B5E28013083120313A90710302902ED
:1010D400031C6D286E284D28333083120313A70098
:1010E400BB30A600DF30A500A50B7628A60B76281A
:1010F400A70B762808000030831203134C05D40094
:1011040000304D05D50080304E05D6007F304F05A8
:10111400D7005708560455045404031D92289328F5
:101124009B280030CF000030CE000030CD000030CE
:10113400CC0000305005D40000305105D50080307B
:101144005205D6007F305305D7005708560455047E
:101154005404031DAE28AF28B7280030D300003054
:10116400D2000030D1000030D000CF1FBA28BB28F5
:10117400DF280030D4000030D5000030D6008030A5
:10118400D7004C08D4024D08031C4D0FCA28CB28A5
:10119400D5024E08031C4E0FD028D128D6024F0882
:1011A400031C4F0FD628D728D7025708CF0056085C
:1011B400CE005508CD005408CC00D31FE228E32804
:1011C40007290030D4000030D5000030D60080302C
:1011D400D7005008D4025108031C510FF228F328F9
:1011E400D5025208031C520FF828F928D6025308D6
:1011F400031C530FFE28FF28D7025708D3005608B4
:10120400D2005508D1005408D0008030CF06803079
:10121400D30653084F02031D192952084E02031D19
:10122400192951084D02031D192950084C020318AD
:101234001C291D291F2903102029031408008312C7
:101244000313A40024080319282929293D29F51F7B
:101254002C292D293D297209A6007309A7007409B8
:10126400A8007509A900A60A0319A70A0319A80A60
:101274000319A90A45297508A9007408A800730868
:10128400A7007208A6007508740473047204031D91
:101294004C294D2956290030F5000030F400003067
:1012A400F3000030F200D6299630A50064290130FD
:1012B400A50701300310A90CA80CA70CA60CFF3E2F
:1012C400031D5C29FE302905031D69296A29592952
:1012D40084290130A5070130A60700300318013026
:1012E400A707003003180130A807003003180130A5
:1012F400A90701300310A90CA80CA70CA60CFF3EEB
:10130400031D7C29FF302905031D89298A296B299E
:1013140096290130A5020130A0000310A60DA70DE7
:10132400A80DA90DA00B8F29A81B99299A29A029DA
:101334000230250203189F29A0298B292518A329E7
:10134400A429AC29FF30A605FF30A7057F30A805E6
:10135400FF30A9050310A50C2508A000A101A201D6
:10136400A30118300310A00DA10DA20DA30DFF3E83
:10137400031DB4292008A6042108A7042208A804F0
:101384002308A90424080319C829C929CE29F51F4B
:10139400CC29CD29CE29A9172908F5002808F4005D
:1013A4002708F3002608F200080083120313A7009D
:1013B40011306B06031DDF29E029E9290A168A1179
:1013C40018240A128A15FF3083120313EB003730F6
:1013D4002706031DEE29EF29FD290A168A11182470
:1013E4000A128A150130FA070C307A06031DFB290C
:1013F400FC29FD29FA01323083120313A000903036
:10140400A1008030A2000A168A1125250A128A1525
:10141400C030F8002A300A168A113C240A128A15B0
:101424000A307A020318172A182A582A7A088312CB
:101434000313A5002507A03E840083130008A00021
:10144400840A00088403A100C130A2000A168A118C
:1014540025250A128A157A0883120313A500250785
:10146400A23E840083130008A000840A00088403B9
:10147400A1009130A2000A168A1125250A128A15A4
:101484007A0883120313A5002507A43E840083135E
:101494000008A000840A00088403A100D130A2003F
:1014A4000A168A1125250A128A15DD2A0A307A06B7
:1014B400031D5D2A5E2A9C2A7A0883120313A50061
:1014C4002507A03E840083130008A000840A0008B6
:1014D4008403A100C130A2000A168A1125250A122C
:1014E4008A157A0883120313A5002507A23E8400F7
:1014F40083130008A000840A00088403A10091302B
:10150400A2000A168A1125250A128A1583160313C6
:10151400200883120313A0008316031321088312E7
:101524000313A100D130A2000A168A1125250A123C
:101534008A15DD2A0B307A06031DA12AA22ADD2A88
:101544007A0883120313A5002507A03E84008313A1
:101554000008A000840A00088403A100C130A2008E
:101564000A168A1125250A128A15831603132008E0
:1015740083120313A0008316031321088312031399
:10158400A1009130A2000A168A1125250A128A1593
:1015940083160313220883120313A0008316031374
:1015A400230883120313A100D130A2000A168A1162
:1015B40025250A128A1508000A128A11E3270A123D
:1015C4008A15603083120313A0009030A10080308C
:1015D400A2000A168A1125250A128A1514308312CC
:1015E4000313A0009130A100C430A2000A168A118E
:1015F40025250A128A15423083120313A000903065
:10160400A1009030A2000A168A1125250A128A1513
:10161400532B003083160313CF000030CE000B3061
:10162400CD00B830CC00013083120313DF0000304A
:10163400E0000030E1000030E2005F08831603138D
:10164400CC02831203136008031C600F2A2B2D2B7A
:1016540083160313CD02831203136108031C610F65
:10166400342B372B83160313CE0283120313620821
:10167400031C620F3E2B412B83160313CF028312EC
:101684000313831603134C0A031D522B4D0A031D27
:10169400522B4E0A031D522B4F0A031D522B532B60
:1016A400152B01300A168A11A5250A128A152F3A1C
:1016B400031D5D2B5E2B0B2B0A168A1118240A12AC
:1016C4008A150A128A150E200A128A1501300A1682
:1016D4008A11A5250A128A1583160313D200B8307D
:1016E400D0000B30D1000130D0020030031CD103F4
:1016F400D102500A031D822B510A031D822B832B16
:10170400752B99305206031D882B892B952B831238
:1017140003136C03031D8F2B902B952B0230EC00CD
:101724002230EB00262C9930831603135206031D36
:101734009C2B9D2BD92B0230831203136C06031DA3
:10174400A42BA52BD92B0330EC000A168A111824DC
:101754000A128A15953083120313A0009030A10059
:101764008030A2000A168A1125250A128A15CF3064
:1017740083120313A0009030A100C030A2000A1607
:101784008A1125250A128A15F83083120313A00042
:101794009030A1009030A2000A168A1125250A1261
:1017A4008A150A128A153A240A128A15262C2F3011
:1017B400831603135206031DE02BE12BEE2B44305A
:1017C400831203136C06031DE82BE92BEE2B043064
:1017D400EC0012150715262C262C83160313520829
:1017E4000A128A15D7210A128A15682B8316031345
:1017F40052080A168A1165270A128A15682B2F3097
:10180400831603135206031D082C092C102C0430D4
:1018140083120313EC003330EB00682B1F305206A5
:10182400031D152C162C362C013083120313EC00E7
:101834001130EB00682B8316031352080A128A1125
:101844004B200A128A15682B831203136C08013A81
:101854000319EF2B033A0319F82B013A0319012C4E
:10186400073A03191D2C682B682B0A128A110C28BD
:10187400812D83120313E7012130E800A72D831281
:101884000313E7012930E800A72D2D308312031339
:10189400E800A72D7908003A0319412C013A0319ED
:1018A4003B2C033A0319412C013A0319472C073AFC
:1018B4000319472CA72D83120313E7012B30E800EB
:1018C400A72D83120313E7013230E800A72D8312FA
:1018D4000313E7013930E800A72D7908003A03190A
:1018E400632C013A03195D2C033A0319632C013A62
:1018F4000319692C073A0319692CA72D83120313C2
:10190400E7011A30E800A72D83120313E7011F3003
:10191400E800A72D7908003A0319802C013A03192D
:10192400802C033A0319802C013A0319862C073AB8
:101934000319862CA72D013083120313E7001030FE
:10194400E800A72D7908003A03199D2C013A0319E0
:101954009D2C033A03199D2C013A03199D2C073A37
:1019640003199D2CA72D013083120313E7002430A3
:10197400E800A72D7908003A0319B52C013A031998
:10198400B52C033A0319B52C013A0319B52C073ABF
:101994000319B52CA72D83120313E7011E30E800A9
:1019A400A72D7908003A0319862C013A0319862CCD
:1019B400033A0319862C013A0319CD2C073A03196B
:1019C400CD2CA72D83120313E7011D30E800A72DAA
:1019D4007908003A0319E42C013A0319E42C033A78
:1019E4000319E42C013A0319E42C073A0319E42CF3
:1019F400A72D83120313E7012E30E800A72D8312CD
:101A04000313E7013530E800A72D013083120313D7
:101A1400E700E801A72D7908003A0319012D013ADE
:101A24000319FB2C033A0319012D013A0319072D5D
:101A3400073A0319072DA72D83120313E7010A3070
:101A4400E800A72D83120313E7011430E800A72D43
:101A54007908003A0319242D013A03191E2D033A7B
:101A64000319242D013A0319242D073A0319242DAF
:101A7400A72D83120313E7010630E800A72D790888
:101A8400003A03193B2D013A03193B2D033A03197C
:101A94003B2D013A03193B2D073A03193B2DA72D82
:101AA40083120313E7011030E800A72D83120313F8
:101AB400E7011530E800A72D7908003A0319582DDD
:101AC400013A0319522D033A0319582D013A031907
:101AD400802C073A0319802CA72D632C7908003A2F
:101AE4000319632C013A03196F2D033A0319632C6C
:101AF400013A0319632C073A0319632CA72D7A08BA
:101B0400003A03194C2C013A03196F2C033A0319B8
:101B14008C2C013A0319A42C073A0319BC2C013A62
:101B24000319D32C033A0319EA2C013A03190D2D96
:101B34000F3A03192A2D013A0319412D033A0319C7
:101B44005E2D013A0319702DA72D0800831203138B
:101B54002308F2008030F2052308A8002807F400C7
:101B6400A21FB52DB62DB72D741474080319BB2DFF
:101B7400BC2DCC2D740A031DC02DC12DC92D0030E0
:101B8400A3000030A2000030A1000030A000A21782
:101B9400A301D42D0030A3000030A2000030A10026
:101BA4000030A0002708F3008030F30573087206A4
:101BB4000319DD2DDE2DDF2D72172708A800280755
:101BC400F300A61FE62DE72DE82D731473080319FF
:101BD400EC2DED2DFD2D730A031DF12DF22DFA2DA3
:101BE4000030A7000030A6000030A5000030A4009B
:101BF400A617A701052E0030A7000030A60000306C
:101C0400A5000030A4007408730203180A2E0B2EDA
:101C14002F2E721F0E2E0F2E112E8030F2067408F6
:101C2400F5007308F4007508F3002008F500240893
:101C3400A0007508A4002108F5002508A100750876
:101C4400A5002208F5002608A2007508A6002308AE
:101C5400F5002708A3007508A700F5017308A8007C
:101C6400A9012908AB0074082802AA00031CAB03CD
:101C74002B08803AFF0080307F02031D432E1A3068
:101C84002A02031C462E472E802E83120313230898
:101C9400220421042004031D502E522E0130532E01
:101CA4000030F5000030A3000030A2000030A10095
:101CB4000030A0007308F400862E751C622E632E7B
:101CC4006C2E750883120313A8000310280C013826
:101CD400F5006E2E0310F50C83120313201C732ED3
:101CE400742E752EF5170130A800230DA30CA20C39
:101CF400A10CA00CA80B772E0130F4077308740212
:101D0400031C852E862E5F2E721B892E8A2ED52EBD
:101D14007408031D8E2E8F2E9A2E00308312031307
:101D2400A3000030A2000030A1000030A000FF2F6B
:101D3400831203132408A007250803110318013E86
:101D44000319A52EA107260803110318013E031940
:101D5400AC2EA207270803110318013E0319B32E62
:101D6400A307231CB62EB72E8B2F751CBA2EBB2EA1
:101D7400C22E7508A8000310280C0138F500C42EE3
:101D84000310F50C201CC72EC82EC92EF5170130E0
:101D9400A800230DA30CA20CA10CA00CA80BCB2E05
:101DA4000130F4078B2F831203132308803AFF00BA
:101DB4002708803A7F02031DE92E26082202031D0C
:101DC400E92E25082102031DE92E24082002031808
:101DD400EC2EED2E442FFF30A800FF30A900FF3079
:101DE400AA00FF30AB002408AC002508AD0026088B
:101DF400AE002708AF002008AC022108031C210F05
:101E0400042F052FAD022208031C220F0A2F0B2FCB
:101E1400AE022308031C230F102F112FAF022C082E
:101E2400A8072D0803182D0F182F192FA9072E08FE
:101E340003182E0F1E2F1F2FAA072F0803182F0A6F
:101E4400AB072B08A3002A08A2002908A100280830
:101E5400A0008030F2067503FF3AF5007508031DF3
:101E6400342F352F522F0130A007003003180130D2
:101E7400A107003003180130A20700300318013015
:101E8400A307522F2408A0022508031C250FA10232
:101E94002608031C260FA2022708031C270FA302EF
:101EA4002308220421042004031D592F5A2F872FAD
:101EB4007508031D5E2F5F2F872F0030A3000030AD
:101EC400A2000030A1000030A000FF2F0130A800C4
:101ED4000310A00DA10DA20DA30DA80B6A2FF51FD1
:101EE400742F752F762F2014751C792F7A2F7E2F3F
:101EF4000314750DF500802F0310F50D74080319F4
:101F0400842F852F872F0130F402A21F8A2F8B2F55
:101F1400682FF301F51F8F2F902F9E2F75087F399F
:101F24000319952F962F992F0130F3009E2F201C13
:101F34009C2F9D2F9E2F962F73080319A22FA32F3A
:101F4400D52F0130A007003003180130A10700305D
:101F540003180130A207003003180130A307231C23
:101F6400B42FB52FD52F2008A8002108A9002208D6
:101F7400AA002308AB000130AC002B0DAB0CAA0C5B
:101F8400A90CA80CAC0BBF2F2B08A3002A08A20095
:101F94002908A1002808A000740A0319D22FD32FFE
:101FA400D52F0130F407740A0319D92FDA2FDF2F44
:101FB4007408031DDE2FDF2FED2F0030A300003047
:101FC400A2000030A1000030A0007408031DEB2F14
:101FD400EC2FED2FF201741CF02FF12FF32FA21729
:101FE400F52F7F30A2057408A8000310280CA30065
:101FF400F21FFD2FFE2FFF2FA317080050346C345F
:102004006534613473346534203463346C346F3430
:1020140073346534203464346F346F347234003470
:1020240035343A34533454344134523454342034EF
:1020340036343A345034413455345334453400340E
:10204400503472346F3467346D34203463346F34F5
:102054006D3470346C3465347434653464340034F1
:10206400773461347334683469346E3467342034BB
:10207400703472346F346734723461346D340034C4
:10208400573461347334683469346E3467342034BB
:102094004D3461346334683469346E3465340034E7
:1020A400523465346D346F3476346534203463349B
:1020B4006C346F3474346834733400347034723470
:1020C40065347334733420346B3465347934353483
:1020D400203474346F34003450346F3477346534BE
:1020E400723469346E34673420346F346E3420347F
:1020F4000034573441345434453452345F344C340E
:102104004534563445344C343A34003444346F3412
:102114006F34723420346934733420346F3470343F
:1021240065346E340034703472346534733473340B
:102134002034533477346934743463346834003469
:10214400453463346F34203463346F3474347434FA
:102154006F346E3473340034413471347534613403
:102164002034733474346F3472346534003453342B
:102174007434613469346E342034773461347334A4
:10218400683400344234653464342034733468343D
:10219400653465347434733400345334573435340B
:1021A4003A342034533454344134523454340034A3
:1021B400443465346C346934633461347434653460
:1021C40073340034773461347334683420346F34B6
:1021D4006E346C3479340034523469346E3473346C
:1021E40065342B34643472347934003453345734C2
:1021F40036343A342034533454344F345034003465
:10220400463475346E346334743469346F346E34E4
:10221400003444347234793420346F346E346C3482
:102224007934003470346F34773465347234203444
:102234006F346E34003457346F346F346C34653417
:102244006E34733400344D34653464346934753415
:102254006D340034573468346934743465347334F9
:1022640000345334703469346E34203400345434BC
:1022740069346D3465343A340034503472346F3414
:1022840067343A340034523469346E347334653408
:1022940000344434613469346C347934003448345F
:1022A40065346134763479340034543469346D34AB
:1022B400653400346834693467346834003457341E
:1022C40061347334683400344134753474346F3495
:1022D40000344C346F34773400344D346134783402
:1022E4000034FF1B7D2983137F1883170008840A99
:1022F4000319FF0A08007F087F398A000408840A4A
:062304000319FF0A82002C
:102812008316031306083F3886000800FA30831631
:10282200031392008C148312031312110800F40193
:1028320001300A168A11D3240A168A110430F800CC
:102842003D30F700F70B232CF80B232C282C080023
:102852007E088A007F0882000A168A1129240A1635
:102862008A118000840A04087D0603190034FF0AD5
:102872000319FE0A2D2C83120313A400F401780815
:102882000A168A11D3240A168A11F401F40A831251
:10289200031324080A168A11D3240A168A1108007F
:1028A200F3000F308312031388057308F03988048C
:1028B2008914A630F200F20B5C2C00008312031381
:1028C2008910A630F200F20B642C000008004B3491
:1028D200913451349134DA3490342C349134B93403
:1028E2009034A23490341D349134C4349034EE3494
:1028F20090340B349134E4349034AE3490346634F2
:1029020091346B349134253491345C3491346F3486
:102912009134803083120313C7064B08A3004A0880
:10292200A2004908A1004808A0004708A7004608DD
:10293200A6004508A5004408A4000A128A15A82585
:102942000A168A11831203132308C7002208C6003D
:102952002108C5002008C4000800F601F701721C16
:10296200B32CB42CBA2C7408F6070318F70A7508AE
:10297200F70701300310F40DF50DFF3E031DBB2CCC
:1029820001300310F30CF20CFF3E031DC22C72083F
:102992007304031DCD2CCE2CB02C7708F3007608DF
:1029A200F2000800F6007408031DD82CDC2C8312F8
:1029B20003130915DF2C8312031309117608F0396A
:1029C2000A168A1151240A168A117608F500033074
:1029D2000310F50DFF3E031DE92C0310750DF039B0
:1029E2000A168A1151240A168A11A630F500F50B2F
:1029F200F82C0000080083120313A400A001A10117
:102A02007208F400F5017408A2007508A300241CE2
:102A12000B2D0C2D122D2208A0070318A10A230842
:102A2200A10701300310A20DA30DFF3E031D132DBC
:102A32000310A40C2408031D1F2D202D082D21088E
:102A4200F3002008F2000800F401831203132208A5
:102A52000A168A11D3240A168A11472DF401F40AA0
:102A62002108FF00200884000A168A1173210A1621
:102A72008A110A168A11D3240A168A110130831286
:102A82000313A0070318A10A0030A107831203133E
:102A92002108FF00200884000A168A1173210A16F1
:102AA2008A11003A031D562D572D2F2D080083122F
:102AB20003138C1C5D2D5E2D9E2D01308316031396
:102AC200C207003003180130C30700300318013079
:102AD200C407003003180130C507203042064E30CB
:102AE2000319430644044504031D782D792D9B2DBB
:102AF20083120313680803197F2D802D832D013063
:102B0200E802912D6808031D872D882D912D6708F5
:102B120003198C2D8D2D912D0130E7023C30E800F8
:102B2200003083160313C5000030C4000030C30018
:102B32000030C200831203138C1071088A00700ED9
:102B42008300FE0E7E0E0900831203130608F200B4
:102B52003F30F2053F3072060319B02DB12DBB2D67
:102B62007B080319B52DB62DBB2DFB01EA017208B6
:102B7200E900F32D3F307206031DC02DC12DD02D6B
:102B82007B08031DC52DC62DD02D0130FB001E3044
:102B92006A020318CD2DCE2DF32D6908F42D7B0882
:102BA200031DD42DD52DDE2D1F306A020318DA2D18
:102BB200DB2DDE2D0130EA07F32D7B08031DE22D0C
:102BC200E32DF32D1F306A06031DE82DE92DF32DA9
:102BD20037307206031DEE2DEF2DF32D0130EA077B
:102BE2009930F42D3F3008008230F800DD30F700D4
:102BF200F70BF92DF80BF92DFE2D30300A168A113C
:102C020051240A168A112130F8007630F700F70BAA
:102C1200082EF80B082E000030300A168A115124B3
:102C22000A168A11A630F700F70B152E0000303075
:102C32000A168A1151240A168A11A630F700F70BD8
:102C4200202E000020300A168A1151240A168A11F9
:102C5200A630F700F70B2B2E0000F40128300A16DD
:102C62008A11D3240A168A11F4010C300A168A1129
:102C7200D3240A168A11F40101300A168A11D324C8
:102C82000A168A11F40106300A168A11D3240A168A
:102C92008A110800F701F51F4F2E502E572EF40906
:102CA200F509F40A0319F50A0130F700F31F5A2E49
:102CB2005B2E602EF209F309F20A0319F30A720875
:102CC20073040319652E662E932E0130F600722EC0
:102CD20001300310F20DF30DFF3E031D6A2E013089
:102CE200F607F31F752E762E692E73087502031DE3
:102CF2007C2E72087402031C7F2E802E862E720890
:102D0200F4027308031CF503F50201300310F30CFF
:102D1200F20CFF3E031D872E0130F602031D922E98
:102D2200932E762E77080319972E982E9D2EF4094E
:102D3200F509F40A0319F50A7508F3007408F2009C
:102D42000800831203130618A72EA82EFF2E0711C0
:102D5200121187140A168A1118240A168A11883049
:102D620083120313A0009030A1008030A2000A1643
:102D72008A1125250A168A11003083120313A00036
:102D82009030A100C030A2000A168A1125250A1629
:102D92008A1183120313061CCF2ED02ECA2E0715BA
:102DA200121587100A168A1118240A168A1102307F
:102DB20083120313A0009130A1008030A2000A16F2
:102DC2008A1125250A168A11573083120313A0008F
:102DD2009130A100C030A2000A168A1125250A16D8
:102DE2008A11123083120313A0009030A100903098
:102DF200A2000A168A1125250A168A1108008312D2
:102E02000313A101F31F062F072F0E2FF209F30957
:102E1200F20A0319F30A0130A100F51F112F122F34
:102E2200192FF409F509F40A0319F50A0130A1066C
:102E3200A201A301720873040319202F212F562F18
:102E42000130A0002D2F01300310F20DF30DFF3ED3
:102E5200031D252F0130A007F31F302F312F242F00
:102E620001300310A20DA30DFF3E031D322F730884
:102E72007502031D3E2F72087402031C412F422F5C
:102E8200492F7208F4027308031CF503F502221499
:102E920001300310F30CF20CFF3E031D4A2F0130E8
:102EA200A002031D552F562F312F210803195A2F27
:102EB2005B2F602FA209A309A20A0319A30A230800
:102EC200F3002208F200080083120313A700223045
:102ED2006B06031D6D2F6E2F772F0A168A11182489
:102EE2000A168A11FF3083120313EB0037302706CC
:102EF200031D7C2F7D2F8B2F0A168A1118240A1688
:102F02008A110130F90705307906031D892F8A2FAE
:102F12008B2FF9017B3083120313A0009030A100A4
:102F22008030A2000A168A1125250A168A11C0309D
:102F3200F8002A300A168A113C240A168A117908E6
:102F420083120313A5002507B83E840083130008EB
:102F5200A000840A00088403A100C230A2000A165D
:102F62008A1125250A168A110530F2000030F30075
:102F72007908013EF400003003180130F5000A160A
:102F82008A114B260A168A11720883120313A500AE
:102F92002507B83E840083130008A000840A0008B5
:102FA2008403A1009230A2000A168A1125250A166E
:102FB2008A110530F2000030F3007908023EF40075
:102FC200003003180130F5000A168A114B260A1642
:102FD2008A11720883120313A5002507B83E8400E4
:102FE20083130008A000840A00088403A100D230E1
:0E2FF200A2000A168A1125250A168A11080067
:02400E00FB3F76
:00000001FF
